:020000040800F2
:1040000000500020A1440008254400082D44000869
:104010003D440008454400084D44000800000000ED
:1040200000000000000000000000000055440008EF
:1040300061440008000000006D4400087944000855
:10404000E9440008E9440008E9440008E94400089C
:10405000E9440008E9440008E9440008E94400088C
:10406000E9440008E9440008E9440008E94400087C
:10407000E9440008E9440008E9440008E94400086C
:10408000E9440008E9440008E9440008E94400085C
:10409000E9440008E9440008E9440008E94400084C
:1040A000E9440008E9440008E9440008E94400083C
:1040B000E9440008E9440008E9440008E94400082C
:1040C000E9440008E9440008E9440008E94400081C
:1040D000E9440008E9440008E9440008E94400080C
:1040E000E9440008E9440008E94400080000000031
:1040F00000000000000000000000000000000000C0
:0C41000000000000000000005FF808F163
:10410C0010B5054C237833B9044B13B10448AFF305
:10411C0000800123237010BD0C0000200000000063
:10412C008C4F000808B5034B1BB103490348AFF390
:10413C00008008BD00000000100000208C4F00081B
:10414C0080B400AF164B9B69154A43F00C03936186
:10415C00144B1B68134A23F00F031360114B1B689D
:10416C00104A43F0080313600E4BDB680D4A23F032
:10417C000103D3600C4B1B680B4A23F47063136070
:10418C00094B1B68084A43F400731360064BDB6849
:10419C00054A23F00403D36000BFBD4680BC7047C2
:1041AC000010024000080140000C014080B400AF38
:1041BC00064B9B6803F00103002B14BF0123002363
:1041CC00DBB21846BD4680BC704700BF00080140FA
:1041DC0080B400AF064B074A5A60054B00229A6028
:1041EC00034B07221A6000BFBD4680BC704700BF5E
:1041FC0010E000E03F19010080B400AF044BDB6815
:10420C00034A43F00403D36000BFBD4680BC704733
:10421C00000C014080B400AF044BDB68034A23F070
:10422C000403D36000BFBD4680BC7047000C014046
:10423C0080B586B000AF00237B610023FB740023A4
:10424C007B740023BB7400F04BF900F051F800F0C4
:10425C0095F8FFF775FFFFF7BBFFFFF7A7FF0346C6
:10426C007B747A7CFB7C9A4202D01E4B1B687B6170
:10427C001C4B1A687B69D31A322B2FD9BA7C7B7CE6
:10428C009A422BD07B7CBB74BB7C002B24D0164B6E
:10429C001B780133DAB2144B1A70FFF7ADFF124BD7
:1042AC001B78082B04D16FF00E03FB60FB6898475A
:1042BC000D4B1B78092B04D10023BB60BB680B4A48
:1042CC001A60094B1B780A2B08D16FF00F037B6027
:1042DC007B681B683B6001E0FFF79CFF7B7CFB74F9
:1042EC00BBE700BF280000202C00002078563412B9
:1042FC0080B590B000AF07F11803282200211846B2
:10430C0000F012FE3B1D00221A605A609A60DA60BF
:10431C001A610123BB614FF48033FB6100233B62C4
:10432C000123BB6202237B634FF48033BB634FF4E6
:10433C00E013FB6307F11803184600F017FA034665
:10434C00002B01D000F030F80F237B600223BB6000
:10435C000023FB604FF480633B6100237B613B1DBA
:10436C000221184600F084FC0346002B01D000F01B
:10437C001BF800BF4037BD4680BD000080B483B041
:10438C0000AF084B9B69074A43F020039361054B30
:10439C009B6903F020037B607B6800BF0C37BD4634
:1043AC0080BC70470010024080B400AF72B600BFF2
:1043BC0000BFFDE780B485B000AF154B9B69144A74
:1043CC0043F001039361124B9B6903F00103BB6043
:1043DC00BB680F4BDB690E4A43F08053D3610C4B27
:1043EC00DB6903F080537B607B680A4B5B68FB6086
:1043FC00FB6823F0E063FB60FB6843F08063FB60C9
:10440C00044AFB68536000BF1437BD4680BC70473C
:10441C00001002400000014080B400AF00BFFDE777
:10442C004FF000600168426881F30888104700BFB4
:10443C0080B400AF00BFFDE780B400AF00BFFDE764
:10444C0080B400AF00BFFDE780B400AF00BFBD4635
:10445C0080BC704780B400AF00BFBD4680BC7047C5
:10446C0080B400AF00BFBD4680BC704780B500AFC4
:10447C00044B1B680133034A136000F077F800BF4C
:10448C0080BD00BF2800002080B400AF00BFBD4637
:10449C0080BC7047FFF7F8FF0B480C490C4A00230F
:1044AC0002E0D458C4500433C4188C42F9D3094ADE
:1044BC00094C002301E013600432A242FBD300F04C
:1044CC003BFDFFF7B5FE7047000000200C000020FC
:1044DC00D04F00080C00002034000020FEE7000044
:1044EC0080B500AF084B1B68074A43F010031360FC
:1044FC00032000F007F90F2000F008F8FFF75AFF2F
:10450C000023184680BD00BF0020024080B582B059
:10451C0000AF7860124B1A68124B1B7819464FF497
:10452C007A73B3FBF1F3B2FBF3F3184600F011F915
:10453C000346002B01D001230EE07B680F2B0AD819
:10454C00002279684FF0FF3000F0E7F8064A7B68EC
:10455C001360002300E0012318460837BD4680BDD8
:10456C0000000020080000200400002080B400AFF0
:10457C00054B1B781A46054B1B681344034A136002
:10458C0000BFBD4680BC70470800002030000020F2
:10459C0080B400AF024B1B681846BD4680BC704708
:1045AC003000002080B485B000AF78607B6803F0E9
:1045BC000703FB600C4BDB68BB60BA684FF6FF036C
:1045CC001340BB60FB681A02BB68134343F0BF6324
:1045DC0043F40033BB60044ABB68D36000BF14379C
:1045EC00BD4680BC704700BF00ED00E080B400AF5A
:1045FC00044BDB681B0A03F007031846BD4680BC5E
:10460C00704700BF00ED00E080B483B000AF0346FC
:10461C003960FB7197F90730002B0ADB3B68DAB283
:10462C000C4997F907301201D2B20B4483F80023DE
:10463C000AE03B68DAB20849FB7903F00F03043B4C
:10464C001201D2B20B441A7600BF0C37BD4680BCA7
:10465C00704700BF00E100E000ED00E080B489B0DD
:10466C0000AFF860B9607A60FB6803F00703FB6188
:10467C00FB69C3F10703042B28BF0423BB61FB694F
:10468C000433062B02D9FB69033B00E000237B615A
:10469C004FF0FF32BB6902FA03F3DA43BB681A40EE
:1046AC007B699A404FF0FF317B6901FA03F3D943E0
:1046BC007B680B40134318462437BD4680BC7047BB
:1046CC0080B582B000AF78607B68013BB3F1807F2E
:1046DC0001D301230FE00A4A7B68013B53600F2191
:1046EC004FF0FF30FFF790FF054B00229A60044B10
:1046FC0007221A60002318460837BD4680BD00BF4C
:10470C0010E000E080B582B000AF78607868FFF709
:10471C0049FF00BF0837BD4680BD80B586B000AFED
:10472C000346B9607A60FB7300237B61FFF75EFF81
:10473C0078617A68B9687869FFF790FF024697F953
:10474C000F3011461846FFF75FFF00BF1837BD4604
:10475C0080BD80B582B000AF78607868FFF7B0FF9D
:10476C00034618460837BD4680BD000080B586B0AC
:10477C0000AF78607B68002B01D1012372E27B686B
:10478C001B6803F00103002B00F08780924B5B68E1
:10479C0003F00C03042B0CD08F4B5B6803F00C0361
:1047AC00082B12D18C4B5B6803F48033B3F5803F3C
:1047BC000BD1894B1B6803F40033002B6CD07B6846
:1047CC005B68002B68D101234CE27B685B68B3F516
:1047DC00803F06D1804B1B687F4A43F480331360C3
:1047EC002EE07B685B68002B0CD17B4B1B687A4AF4
:1047FC0023F480331360784B1B68774A23F48023AF
:10480C0013601DE07B685B68B3F5A02F0CD1724B75
:10481C001B68714A43F4802313606F4B1B686E4A0C
:10482C0043F4803313600BE06B4B1B686A4A23F430
:10483C0080331360684B1B68674A23F48023136032
:10484C007B685B68002B13D0FFF7A2FE386108E091
:10485C00FFF79EFE02463B69D31A642B01D9032352
:10486C0000E25D4B1B6803F40033002BF0D014E026
:10487C00FFF78EFE386108E0FFF78AFE02463B69BF
:10488C00D31A642B01D90323ECE1534B1B6803F4BB
:10489C000033002BF0D100E000BF7B681B6803F0F5
:1048AC000203002B63D04C4B5B6803F00C03002B12
:1048BC000BD0494B5B6803F00C03082B1CD1464B07
:1048CC005B6803F48033002B16D1434B1B6803F059
:1048DC000203002B05D07B681B69012B01D001233F
:1048EC00C0E13D4B1B6823F0F8027B685B69DB0081
:1048FC00394913430B603AE07B681B69002B20D0CD
:10490C00364B01221A60FFF743FE386108E0FFF7CF
:10491C003FFE02463B69D31A022B01D90323A1E1C6
:10492C002D4B1B6803F00203002BF0D02A4B1B68A5
:10493C0023F0F8027B685B69DB00274913430B60AB
:10494C0015E0264B00221A60FFF722FE386108E0C2
:10495C00FFF71EFE02463B69D31A022B01D9032333
:10496C0080E11D4B1B6803F00203002BF0D17B6828
:10497C001B6803F00803002B3AD07B689B69002B63
:10498C0019D0174B01221A60FFF702FE386108E0BC
:10499C00FFF7FEFD02463B69D31A022B01D9032314
:1049AC0060E10D4B5B6A03F00203002BF0D0012099
:1049BC0000F09CFA1CE00A4B00221A60FFF7E8FD9D
:1049CC0038610FE0FFF7E4FD02463B69D31A022B76
:1049DC0008D9032346E100BF001002400000424208
:1049EC0080044242924B5B6A03F00203002BE9D134
:1049FC007B681B6803F00403002B00F0A6800023E7
:104A0C00FB758B4BDB6903F08053002B0DD1884B6E
:104A1C00DB69874A43F08053D361854BDB6903F034
:104A2C008053BB60BB680123FB75824B1B6803F48E
:104A3C008073002B18D17F4B1B687E4A43F4807324
:104A4C001360FFF7A5FD386108E0FFF7A1FD0246F2
:104A5C003B69D31A642B01D9032303E1754B1B6803
:104A6C0003F48073002BF0D07B68DB68012B06D13C
:104A7C006F4B1B6A6E4A43F0010313622DE07B6897
:104A8C00DB68002B0CD16A4B1B6A694A23F00103CB
:104A9C001362674B1B6A664A23F0040313621CE023
:104AAC007B68DB68052B0CD1614B1B6A604A43F0B9
:104ABC00040313625E4B1B6A5D4A43F001031362ED
:104ACC000BE05B4B1B6A5A4A23F001031362584BF1
:104ADC001B6A574A23F0040313627B68DB68002BC4
:104AEC0015D0FFF755FD38610AE0FFF751FD02467E
:104AFC003B69D31A41F28832934201D90323B1E0C6
:104B0C004B4B1B6A03F00203002BEED014E0FFF7B3
:104B1C003FFD38610AE0FFF73BFD02463B69D31AC3
:104B2C0041F28832934201D903239BE0404B1B6A2C
:104B3C0003F00203002BEED1FB7D012B05D13C4B86
:104B4C00DB693B4A23F08053D3617B68DB69002B24
:104B5C0000F08780364B5B6803F00C03082B61D0A8
:104B6C007B68DB69022B46D1334B00221A60FFF7BE
:104B7C000FFD386108E0FFF70BFD02463B69D31AC5
:104B8C00022B01D903236DE0294B1B6803F0007342
:104B9C00002BF0D17B681B6AB3F5803F08D1244B06
:104BAC005B6823F400327B689B68214913434B609C
:104BBC001F4B5B6823F474127B68196A7B685B6A11
:104BCC000B431B4913434B601B4B01221A60FFF72D
:104BDC00DFFC386108E0FFF7DBFC02463B69D31AC7
:104BEC00022B01D903233DE0114B1B6803F000732A
:104BFC00002BF0D035E0104B00221A60FFF7C8FCF8
:104C0C00386108E0FFF7C4FC02463B69D31A022B5B
:104C1C0001D9032326E0064B1B6803F00073002B1D
:104C2C00F0D11EE07B68DB69012B07D1012319E071
:104C3C000010024000700040600042420B4B5B6869
:104C4C00FB60FB6803F480327B681B6A9A4206D1D6
:104C5C00FB6803F470127B685B6A9A4201D00123F3
:104C6C0000E0002318461837BD4680BD00100240F6
:104C7C0080B584B000AF786039607B68002B01D1BF
:104C8C000123D0E06A4B1B6803F007033A689A4291
:104C9C0010D9674B1B6823F0070265493B68134327
:104CAC000B60634B1B6803F007033A689A4201D010
:104CBC000123B8E07B681B6803F00203002B20D0B3
:104CCC007B681B6803F00403002B05D0594B5B6811
:104CDC00584A43F4E06353607B681B6803F0080395
:104CEC00002B05D0534B5B68524A43F4605353601E
:104CFC00504B5B6823F0F0027B689B684D49134373
:104D0C004B607B681B6803F00103002B40D07B6871
:104D1C005B68012B07D1474B1B6803F40033002B56
:104D2C0015D101237FE07B685B68022B07D1414BD7
:104D3C001B6803F00073002B09D1012373E03D4B7A
:104D4C001B6803F00203002B01D101236BE0394BEC
:104D5C005B6823F003027B685B68364913434B6046
:104D6C00FFF716FCF8600AE0FFF712FC0246FB683E
:104D7C00D31A41F28832934201D9032353E02D4BCD
:104D8C005B6803F00C027B685B689B009A42EBD17A
:104D9C00274B1B6803F007033A689A4210D2244B46
:104DAC001B6823F0070222493B6813430B60204B1E
:104DBC001B6803F007033A689A4201D0012332E0E2
:104DCC007B681B6803F00403002B08D0194B5B684D
:104DDC0023F4E0627B68DB68164913434B607B6805
:104DEC001B6803F00803002B09D0124B5B6823F4FB
:104DFC0060527B681B69DB000E4913434B6000F06B
:104E0C0021F802460B4B5B681B0903F00F030A49A0
:104E1C00CB5C22FA03F3094A1360094B1B68184652
:104E2C00FFF774FB002318461037BD4680BD00BF4A
:104E3C000020024000100240A44F00080000002097
:104E4C000400002080B487B000AF0023FB60002377
:104E5C00BB6000237B6100237B6000233B611E4B06
:104E6C005B68FB60FB6803F00C03042B02D0082B7F
:104E7C0003D027E0194B3B6127E0FB689B0C03F048
:104E8C000F03174AD35C7B60FB6803F48033002B61
:104E9C0010D0114B5B685B0C03F00103114AD35C1F
:104EAC00BB607B680D4A03FB02F2BB68B2FBF3F3F9
:104EBC007B6104E07B680C4A02FB03F37B617B693A
:104ECC003B6102E0054B3B6100BF3B6918461C3758
:104EDC00BD4680BC704700BF0010024000127A0033
:104EEC00B44F0008C44F000800093D0080B485B0E1
:104EFC0000AF78600A4B1B680A4AA2FB03235B0ACB
:104F0C007A6802FB03F3FB6000BFFB685A1EFA6071
:104F1C00002BF9D100BF00BF1437BD4680BC7047D1
:104F2C0000000020D34D621003460244934200D18E
:104F3C00704703F8011BF9E770B500260C4D0D4CBA
:104F4C00641BA410A64209D100F01AF800260A4DE1
:104F5C000A4C641BA410A64205D170BD55F8043B45
:104F6C0098470136EEE755F8043B98470136F2E7CF
:104F7C00C84F0008C84F0008C84F0008CC4F0008A5
:104F8C00F8B500BFF8BC08BC9E467047F8B500BF2A
:084F9C00F8BC08BC9E467047FA
:104FA40000000000000000000102030406070809D5
:104FB40002030405060708090A0B0C0D0E0F101056
:044FC40001020000E6
:044FC800314100086B
:044FCC000D4100088B
:0C4FD00000127A00100000000100000038
:04000005080044A10A
:00000001FF
