:020000040800F2
:10000000005000207D060008D9040008E104000823
:10001000E9040008F1040008F904000800000000E9
:1000200000000000000000000000000001050008C2
:100030000D0500080000000019050008250500084E
:10004000C5060008C5060008C5060008C506000864
:10005000C5060008C5060008C5060008C506000854
:10006000C5060008C5060008C5060008C506000844
:10007000C5060008C5060008C5060008C506000834
:10008000C5060008C5060008C5060008C506000824
:10009000C5060008C5060008C5060008C506000814
:1000A000C5060008C5060008C5060008C506000804
:1000B000C5060008C5060008C5060008C5060008F4
:1000C000C5060008C5060008C5060008C5060008E4
:1000D000C5060008C5060008C5060008C5060008D4
:1000E000C5060008C5060008C50600080000000097
:1000F0000000000000000000000000000000000000
:0C01000000000000000000005FF808F1A3
:10010C0010B5054C237833B9044B13B10448AFF345
:10011C0000800123237010BD60000020000000004F
:10012C005C15000808B5034B1BB103490348AFF33A
:10013C00008008BD00000000640000205C15000871
:10014C0080B400AF094A936943F008039361084AED
:10015C00136823F440631360054A1368022161F3AA
:10016C000923136000BFBD4680BC704700100240DD
:10017C00000C014080B400AF0F4A136843F4803385
:10018C00136000BF0C4B1B68C3F34043DBB2002B66
:10019C00F8D0094A5368012161F30103536000BF91
:1001AC00054B5B68C3F38103DBB2012BF8D100BFB5
:1001BC0000BFBD4680BC70470010024080B485B0C3
:1001CC0000AF78607B68002B01D101231DE0114B3F
:1001DC00FB607B685A08FB681A447B68B2FBF3F33C
:1001EC00BB60BB681B090C4AC3F30B0399B2936841
:1001FC0061F30F139360084ABB6803F00F03D9B285
:10020C00936861F303039360002318461437BD46CB
:10021C0080BC704700127A000038014080B582B073
:10022C0000AF7860274A936923F480439361254A91
:10023C00936943F480439361224A936923F0040346
:10024C009361204A936943F0040393611E4A5368F7
:10025C00022161F3871353601B4A536843F0300348
:10026C005360194A5368012161F38B235360164A7A
:10027C00536823F440735360144AD36823F4005337
:10028C00D360124AD36823F00803D3600F4AD368B3
:10029C0043F00803D3600D4AD36823F00403D36002
:1002AC000A4AD36843F00403D3607868FFF786FFEB
:1002BC00064AD36843F40053D3600023184608372A
:1002CC00BD4680BD001002400008014000380140CE
:1002DC0080B483B000AF0346FB7100BF0A4B1B68B0
:1002EC00C3F3C013DBB2002BF8D0074AFB79C3F37E
:1002FC00080399B2536861F308035360002318464E
:10030C000C37BD4680BC70470038014080B582B0C8
:10031C0000AF78600BE07B685A1C7A601B7818463B
:10032C00FFF7D6FF0346002B01D0012304E07B68C6
:10033C001B78002BEFD1002318460837BD4680BD33
:10034C0080B485B000AF78607B68002B01D10123AD
:10035C001DE0114BFB607B685A08FB681A447B68F4
:10036C00B2FBF3F3BB60BB681B090C4AC3F30B0372
:10037C0099B2936861F30F139360084ABB6803F05A
:10038C000F03D9B2936861F30303936000231846FB
:10039C001437BD4680BC704700127A000044004000
:1003AC0080B582B000AF7860274AD36923F400335C
:1003BC00D361254AD36943F40033D361224A93694C
:1003CC0023F004039361204A936943F0040393617F
:1003DC001E4A1368022161F38B2313601B4A1368B6
:1003EC0043F440731360194A1368012161F38F338E
:1003FC001360164A136823F440531360144AD368ED
:10040C0023F40053D360124AD36823F00803D3605B
:10041C000F4AD36843F00803D3600D4AD36823F026
:10042C000403D3600A4AD36843F00403D3607868AA
:10043C00FFF786FF064AD36843F40053D3600023CA
:10044C0018460837BD4680BD001002400008014028
:10045C000044004080B582B000AFFFF78BFEFFF781
:10046C006FFE4FF4E130FFF7D9FE4FF4E130FFF7A8
:10047C0097FF124800F0F6F91148FFF747FF114AB1
:10048C00D36843F00403D36000237B6002E07B68F5
:10049C0001337B607B680C4A9342F8DD094AD368D0
:1004AC0023F00403D36000233B6002E03B6801337C
:1004BC003B603B68044A9342F8DDDDE774150008A5
:1004CC0088150008000C01409F86010080B400AF25
:1004DC0000BFFDE780B400AF00BFFDE780B400AF04
:1004EC0000BFFDE780B400AF00BFFDE780B400AFF4
:1004FC0000BFFDE780B400AF00BFBD4680BC7047B5
:10050C0080B400AF00BFBD4680BC704780B400AF64
:10051C0000BFBD4680BC704780B500AF00F0CEF880
:10052C0000BF80BD80B586B000AFF860B9607A605E
:10053C0000237B610AE0AFF300800146BB685A1CC4
:10054C00BA60CAB21A707B6901337B617A697B68C5
:10055C009A42F0DB7B6818461837BD4680BD80B5E3
:10056C0086B000AFF860B9607A6000237B6109E067
:10057C00BB685A1CBA601B781846AFF300807B69C5
:10058C0001337B617A697B689A42F1DB7B681846A0
:10059C001837BD4680BD80B483B000AF78604FF093
:1005AC00FF3318460C37BD4680BC704780B483B00F
:1005BC0000AF786039603B684FF400525A600023FA
:1005CC0018460C37BD4680BC704780B483B000AF72
:1005DC007860012318460C37BD4680BC704780B448
:1005EC0085B000AFF860B9607A6000231846143704
:1005FC00BD4680BC7047000080B586B000AF786007
:10060C00144A154BD31A7B617B693B61134B1B68F6
:10061C00002B02D1114B124A1A60104B1A687B68DE
:10062C0013443A699A4207D200F0C0F903460C22EF
:10063C001A604FF0FF3309E0084B1B68FB60074B57
:10064C001A687B681344054A1360FB681846183710
:10065C00BD4680BD00500020000400007C0000203E
:10066C00D001002080B400AF00BFBD4680BC7047F5
:10067C00FFF7F8FF0B480C490C4A002302E0D45852
:10068C00C4500433C4188C42F9D3094A094C0023D2
:10069C0001E013600432A242FBD300F08DF9FFF7A6
:1006AC00D9FE70470000002060000020D015000823
:1006BC0060000020D0010020FEE7000080B400AFF5
:1006CC00054B1B781A46054B1B681344034A1360F1
:1006DC0000BFBD4680BC7047000000208000002099
:1006EC00002310B50446C0E90033C0E9043383602D
:1006FC0081814366C2818361194608225C3000F017
:10070C0006F90D4B246263620C4BA3620C4BE36243
:10071C000C4B23630C4B9C4206D003F168029442B1
:10072C0002D0D0339C4205D104F15800BDE81040F2
:10073C0000F066B910BD00BF95080008B7080008A6
:10074C00EF0800081309000884000020024A03493E
:10075C00034800F069B800BF04000020A112000893
:10076C001400002041680C4B10B59942044601D08E
:10077C0000F090FDA168094B994202D0204600F090
:10078C0089FDE168064B994204D02046BDE8104033
:10079C0000F080BD10BD00BF84000020EC000020E4
:1007AC005401002010B50B4B0B4C0C4A20461A6020
:1007BC0004210022FFF794FF04F1680001220921B3
:1007CC00FFF78EFF04F1D0000222BDE81040122189
:1007DC00FFF786BFBC0100208400002059070008E9
:1007EC00014800F00EB900BFC5010020014800F01F
:1007FC0009B900BFC501002010B50446FFF7F0FF92
:10080C00236A1BB1BDE81040FFF7F0BF044B236215
:10081C00044B1B68002BF5D1FFF7C4FFF2E700BFB8
:10082C0071070008BC0100202DE9F84307468846F3
:10083C0014460026D4E90195B9F1010905D52468BF
:10084C00002CF7D13046BDE8F883AB89012B07D9D2
:10085C00B5F90E30013303D029463846C04706435C
:10086C006835E9E70FB407B5064904AB086853F8D7
:10087C00042B8168019300F0E5F903B05DF804EBFB
:10088C0004B070471000002010B50C46B1F90E10E2
:10089C0000F068F80028ABBF636DA3891B1823F424
:1008AC008053ACBF6365A38110BD2DE9F0411F4699
:1008BC008B890546DB050C46164605D5022300221E
:1008CC00B1F90E1000F03CF8A389324623F48053A2
:1008DC00A38128463B46B4F90E10BDE8F04100F068
:1008EC0053B810B50C46B1F90E1000F029F8431CA2
:1008FC00A38915BF606523F4805343F48053A3810F
:10090C0018BFA38110BDB1F90E1000F009B8034651
:10091C000244934200D1704703F8011BF9E7000031
:10092C0038B50023054D044608462B60FFF733FE0F
:10093C00431C02D12B6803B1236038BDC0010020D9
:10094C0038B50446084611460022054D2A601A4661
:10095C00FFF745FE431C02D12B6803B1236038BD61
:10096C00C001002038B50446084611460022054D4A
:10097C002A601A46FFF7D6FD431C02D12B6803B13F
:10098C00236038BDC001002038B504460846114626
:10099C000022054D2A601A46FFF7E1FD431C02D1E7
:1009AC002B6803B1236038BDC0010020014B1868CF
:1009BC00704700BF1000002070B500260C4D0D4C88
:1009CC00641BA410A64209D100F0C2FD00260A4DFA
:1009DC000A4C641BA410A64205D170BD55F8043B0B
:1009EC0098470136EEE755F8043B98470136F2E795
:1009FC00C8150008C8150008C8150008CC15000853
:100A0C00704770477047000038B50546002940D044
:100A1C0051F8043C0C1F002BB8BFE41800F0DEF8B2
:100A2C001C4A136833B9636014602846BDE838402B
:100A3C0000F0DAB8A34208D9206821188B4201BF14
:100A4C0019685B6809182160EDE71A465B680BB101
:100A5C00A342FAD911685018A0420BD12068014466
:100A6C00501883421160E0D118685B68084410602C
:100A7C005360DAE702D90C232B60D6E720682118E3
:100A8C008B4201BF19685B68091821606360546070
:100A9C00CBE738BDCC01002070B50F4E0C46316849
:100AAC00054611B900F0B2FC30602146284600F032
:100ABC00ADFC431C03D14FF0FF34204670BDC41C69
:100ACC0024F00304A042F8D0211A284600F09EFC22
:100ADC000130F2D1EFE700BFC80100202DE9F84347
:100AEC00CD1C25F0030508350C2D38BF0C25002D29
:100AFC00064601DBA94204D90C2333600020BDE873
:100B0C00F883DFF8D48000F069F8D8F800301C4680
:100B1C0044BB29463046FFF7BFFF431C044658D15F
:100B2C00D8F800402746002F43D1002C4BD0236827
:100B3C003946304604EB030900F068FC814542D18C
:100B4C00216830466D1A2946FFF7A6FF01303AD0CE
:100B5C0023682B442360D8F800305A6862BBC8F86D
:100B6C0000700FE02268521B20D40B2A17D9611990
:100B7C00A342256018BF5960636808BFC8F800100D
:100B8C0062514B60304600F02FF804F10B00231D2E
:100B9C0020F00700C21A1CBF1B1AA350AFE76268F3
:100BAC00A3420CBFC8F800205A60EBE723466468E8
:100BBC00AEE73C467F68B6E71A465B68A342FBD1BA
:100BCC0000235360DEE70C233046336000F00CF852
:100BDC0094E70560D6E700BFCC0100200148FFF781
:100BEC0010BF00BFC40100200148FFF70BBF00BFBE
:100BFC00C4010020936810B4013B002B936007DA0A
:100C0C009469A34201DB0A2902D110BC00F06ABB33
:100C1C001368581C10601970084610BC7047F8B562
:100C2C0006460F461446D518AC4201D1002007E009
:100C3C003A46304614F8011BFFF7DCFF431CF3D196
:100C4C00F8BD00002DE9F04F0D46144698460646B7
:100C5C009DB018B1036A0BB9FFF7CEFD6B6ED907C7
:100C6C0005D4AB899A0502D4A86DFFF7CAFEAB89EF
:100C7C001B0701D52B699BB92946304600F070FB48
:100C8C0070B16B6EDC0704D54FF0FF301DB0BDE8C2
:100C9C00F08FAB899805F7D4A86DFFF7B3FEF3E797
:100CAC000023099320238DF8293030234FF00109BC
:100CBC00CDF80C80DFF8A8818DF82A3023469A46AF
:100CCC0013F8012B0AB1252AF9D1BAEB040B0BD07E
:100CDC005B46224629463046FFF7A1FF013000F063
:100CEC00A780099A5A4409929AF80030002B00F018
:100CFC009F8000234FF0FF32CDE905230AF1010A52
:100D0C00049307938DF853301A935446052214F824
:100D1C00011B534800F08AFB049AD8B9D10644BF92
:100D2C0020238DF85330130744BF2B238DF85330F9
:100D3C009AF800302A2B15D0544600204FF00A0C9C
:100D4C00079A214611F8013B303B092B4BD9B0B126
:100D5C00079214E0A0EB080309FA03F31343A2462D
:100D6C000493D2E7039B191D1B680391002BBBBF97
:100D7C005B4242F0020207930793B8BF04922378B8
:100D8C002E2B0AD163782A2B32D1039B02341A1DE5
:100D9C001B68039243EAE3730593DFF8C8A00322B0
:100DAC005046217800F042FB38B14022049BA0EB66
:100DBC000A00824013430134049314F8011B0622E9
:100DCC0029488DF8281000F031FB00283FD0274B24
:100DDC001BBB039B073323F0070308330393099BC7
:100DEC003B4409936AE70C4601200CFB0232A8E74E
:100DFC0000234FF00A0C194601340593204610F8D5
:100E0C00012B303A092A03D9002BC6D00591C4E72F
:100E1C00044601230CFB0121F0E703AB00932A46A7
:100E2C003046134B04A9AFF300800746781CD6D18B
:100E3C006B6ED90705D4AB899A0502D4A86DFFF760
:100E4C00E1FDAB895B063FF51FAF09981EE703ABCD
:100E5C0000932A463046064B04A900F07DF8E4E7DF
:100E6C0093150008991500089D1500080000000056
:100E7C002B0C00082DE9F047164698468A680B693A
:100E8C0007469342B8BF1346336091F843200C4693
:100E9C00DDF820900AB1013333602368990642BF14
:100EAC00336802333360256815F0060506D104F16A
:100EBC00190AE36832689B1AAB422BDC94F8433076
:100ECC002268003B18BF0123920630D441463846B5
:100EDC0004F14302C847013023D02368226903F090
:100EEC000603042B14BF002533684FF0000608BF1F
:100EFC00E56804F11A0408BFED1A54F8123C08BF57
:100F0C0025EAE5759342C4BF9B1AED18B5421AD178
:100F1C00002008E00123524641463846C8470130BC
:100F2C0003D14FF0FF30BDE8F0870135C1E7302029
:100F3C00E11881F843005A1C94F8451022440233FE
:100F4C0082F84310C2E70123224641463846C8477F
:100F5C000130E6D00136D9E72DE9FF470F7E9146E7
:100F6C00782F80460C469A460C9E01F1430207D816
:100F7C00622F0AD8002F00F0D180582F00F0B880D3
:100F8C0004F1420684F842703AE0A7F16303152B92
:100F9C00F6D801A151F823F0FD0F0008111000083C
:100FAC008D0F00088D0F00088D0F00088D0F0008A5
:100FBC00111000088D0F00088D0F00088D0F000810
:100FCC008D0F00080F1100083B100008C910000815
:100FDC008D0F00088D0F0008311100088D0F0008CF
:100FEC003B1000088D0F00088D0F0008D110000871
:100FFC0033681A1D1B68326004F1420684F84230D3
:10100C0001239CE033682068191D3160060601D568
:10101C001D6803E04506FBD5B3F90050002D03DA3B
:10102C002D236D4284F843300A23584811E021687F
:10103C003368080653F8045B02D4490648BFADB2C6
:10104C006F2F336014BF0A2308235048002184F803
:10105C0043106668002EA66005DB21682E4321F044
:10106C00040121604BD01646B5FBF3F103FB11577D
:10107C00C75D06F8017D2F46BB420D46F4D9082BFF
:10108C000BD12368DF0708D5236961689942DEBF5D
:10109C00302306F8013C06F1FF36921B22614B46C9
:1010AC0021464046CDF800A003AAFFF7E3FE01302D
:1010BC004AD14FF0FF3004B0BDE8F087236843F00D
:1010CC00200323607827324884F845702368316800
:1010DC001F0651F8045B02D45F0648BFADB2316005
:1010EC00D90744BF43F0200323601DB11023ADE7A3
:1010FC002648E9E7236823F020032360F6E7164629
:10110C00BDE733682568181D616930602E061B68C1
:10111C0001D5196002E06806FBD51980002316463C
:10112C002361BCE7336800211A1D32601E686268B7
:10113C00304600F07BF908B1801B60606368236166
:10114C00002384F84330AAE73246494640462369D7
:10115C00D0470130ADD023689B0713D4E068039BC4
:10116C009842B8BF1846A6E7012332464946404686
:10117C00D04701309DD00135E36803995B1AAB422F
:10118C00F2DCEBE7002504F11906F5E7A4150008DD
:10119C00B5150008B1F90C20F8B5160705460C4634
:1011AC0054D44B68002B02DC0B6C002B48DDE66A38
:1011BC00002E45D0002312F480522F68216A2B6038
:1011CC0030D0626DA389590705D56368D21A636B59
:1011DC000BB1236CD21A00232846E66A216AB04769
:1011EC00431CA38906D129681D292BD8284ACA403B
:1011FC00D60727D5002262602269D904226004D563
:10120C00421C01D12B6803B96065616B2F60B9B1C9
:10121C0004F14403994202D02846FFF7F5FB002362
:10122C0063630DE001232846B0470246501CC9D128
:10123C002B68002BC6D01D2B01D0162B1DD12F6077
:10124C00002021E043F040031BB21AE00F69002F8D
:10125C00F6D0930718BF00230E6808BF4B69F61B26
:10126C000F608B60002EEBDD33463A462846216A30
:10127C00D4F828C0E047002807DCB4F90C3043F060
:10128C0040034FF0FF30A381F8BD0744361AE9E75D
:10129C000100402038B50B6905460C4613B90025F2
:1012AC00284638BD18B1036A0BB9FFF7A5FAB4F993
:1012BC000C30002BF3D0626ED00704D4990502D405
:1012CC00A06DFFF79EFB28462146FFF763FF636E78
:1012DC000546DA07E4D4A3899B05E1D4A06DFFF79A
:1012EC0091FBDDE7F8B50E461446054618B1036AC6
:1012FC000BB9FFF781FAA369A360A3891A0701D57B
:10130C00236943B92146284600F02AF818B14FF05A
:10131C00FF373846F8BD23682269F6B2981A63691C
:10132C003746834205DC21462846FFF7B3FF0028E9
:10133C00EDD1A368013BA36023685A1C22601E7088
:10134C006269431C9A4204D0A389DB07E1D50A2EBB
:10135C00DFD121462846FFF79DFF0028D9D0D6E7DC
:10136C0038B5294B054618680C4618B1036A0BB9F9
:10137C00FFF742FAB4F90C30190722D4DA0607D475
:10138C0009222A6043F040034FF0FF30A38133E081
:10139C00580712D5616B41B104F14403994202D054
:1013AC002846FFF731FB00236363A38923F0240352
:1013BC00A3810023636023692360A38943F008039E
:1013CC00A38123694BB9A38903F42073B3F5007F80
:1013DC0003D02146284600F05CF8B4F90C3013F029
:1013EC0001020AD00022A26062695242A261226903
:1013FC0042B913F08000C5D138BD990758BF626956
:10140C00A260F4E70020F7E71000002038B50023B5
:10141C00054D044608462B60FFF7EEF8431C02D13D
:10142C002B6803B1236038BDC0010020034610B502
:10143C00C9B202449342184601D1002003E004785B
:10144C0001338C42F6D110BD70B50C46B1F90E10BB
:10145C00154600291E4696B00CDAA389002113F01C
:10146C00800F14BF40234FF48063002031602B6049
:10147C0016B070BD6A4600F049F80028EDDB019902
:10148C0001F47041A1F50053594259414FF4806366
:10149C00EBE78B89F7B59D0706460C4607D504F19B
:1014AC004703236023610123636103B0F0BD6A46E7
:1014BC0001ABFFF7C9FF009F054639463046FFF7E1
:1014CC000DFB48B9B4F90C309A05EED423F00303A4
:1014DC0043F00203A381E2E7A389C4E9040743F0C4
:1014EC008003A381019B20605BB13046B4F90E10E0
:1014FC0000F01EF828B1A38923F0030343F0010385
:10150C00A381A3891D43A581CFE7000038B5002333
:10151C00064D0446084611462B60FFF747F8431C5E
:10152C0002D12B6803B1236038BD00BFC00100207D
:10153C0038B50023054D044608462B60FFF745F8E7
:10154C00431C02D12B6803B1236038BDC0010020BD
:10155C00F8B500BFF8BC08BC9E467047F8B500BF94
:08156C00F8BC08BC9E46704764
:10157400554152543120424F4F544C4F41444552EF
:10158400000000006B666E676B666A676A6A002318
:101594002D302B2000686C4C00656667454647007B
:1015A4003031323334353637383941424344454695
:1015B400003031323334353637383961626364652B
:0415C40066000000BD
:0415C80031010008E5
:0415CC000D01000805
:1015D0000100000000000000030000008400002063
:1015E000140000200000000084000020EC00002017
:1015F0005401002000000000000000000000000076
:1016000000000000000000000000000000000000DA
:1016100000000000000000000000000000000000CA
:1016200000000000000000000000000000000000BA
:040000050800067D6C
:00000001FF
