:020000040800F2
:1000000000500020ED080008890800089108000849
:1000100099080008A1080008A908000800000000CD
:10002000000000000000000000000000B10800080F
:10003000BD08000800000000C9080008D508000835
:100040003509000835090008350900083509000898
:100050003509000835090008350900083509000888
:100060003509000835090008350900083509000878
:100070003509000835090008350900083509000868
:100080003509000835090008350900083509000858
:100090003509000835090008350900083509000848
:1000A0003509000835090008350900083509000838
:1000B0003509000835090008350900083509000828
:1000C0003509000835090008350900083509000818
:1000D0003509000835090008350900083509000808
:1000E000350900083509000835090008000000003E
:1000F0000000000000000000000000000000000000
:0C01000000000000000000005FF808F1A3
:10010C0010B5054C237833B9044B13B10448AFF345
:10011C0000800123237010BD0400002000000000AB
:10012C00A409000808B5034B1BB103490348AFF3FE
:10013C00008008BD0000000008000020A409000891
:10014C0080B400AF074B1B6803F08003002B05D075
:10015C00054B064A1A60044B054A1A6000BFBD469F
:10016C0080BC7047102002400420024023016745E8
:10017C00AB89EFCD80B400AF044B1B68034A43F04E
:10018C008003136000BFBD4680BC70471020024046
:10019C0080B483B000AF1B4B7B6000BF1A4B1B6855
:1001AC0003F00103002B05D07B68013B7B607B686F
:1001BC00002BF3D17B68002B01D102231CE0124BE6
:1001CC001B6803F01003002B01D0062314E00E4B28
:1001DC001B6803F00403002B01D005230CE00A4B31
:1001EC001B6803F02003002B05D0074B1B68064A45
:1001FC0043F020031360002318460C37BD4680BC27
:10020C00704700BFA08601000C20024080B584B06E
:10021C0000AF78607B681C4A934208D37B681B4A0A
:10022C00934204D87B68C3F30903002B01D003234A
:10023C0026E0FFF785FFFFF7ABFF0346FB73FB7B65
:10024C00002B01D0FB7B1BE0114B1B68104A43F0C9
:10025C00020313600F4A7B6813600D4B1B680C4A3A
:10026C0043F040031360FFF793FF0346FB73084B07
:10027C001B68074A23F002031360FFF77BFFFB7B2D
:10028C0018461037BD4680BD00400008FFFF01082E
:10029C00102002401420024080B584B000AF78607A
:1002AC000B467B807B6803F00103002B07D17B6836
:1002BC001A4A934203D37B68194A934201D9042307
:1002CC0028E0FFF73DFFFFF763FF0346FB73FB7B63
:1002DC00002B01D0FB7B1DE0124B1B68114A43F035
:1002EC00010313607B687A881A80FFF751FF03467D
:1002FC00FB730C4B1B680B4A23F001031360FFF7D5
:10030C0039FF7B681B889BB27A889A4201D00723FD
:10031C0000E0FB7B18461037BD4680BD004000084E
:10032C00FFFF01081020024080B586B000AFF860D6
:10033C00B9607A60FB6803F00103002B09D1FB68FC
:10034C00234A934205D3FA687B681344214A9342AB
:10035C0001D9042338E000237B6130E07B69013351
:10036C007A689A4210D9BA687B6913441B781AB21E
:10037C007B690133B9680B441B781BB21B021BB29F
:10038C0013431BB27B8208E0BA687B6913441B7869
:10039C001BB263F0FF031BB27B82FA687B691344C8
:1003AC007A8A11461846FFF777FF03467B747B7CED
:1003BC00002B01D07B7C07E07B6902337B617A697F
:1003CC007B689A42CAD3002318461837BD4680BDB5
:1003DC00004000080000020880B582B000AF0D4B51
:1003EC007B600DE07868FFF711FF0346FB70FB782C
:1003FC00002B01D0FB7808E07B6803F580637B6001
:10040C007B68054A9342EDD9002318460837BD4650
:10041C0080BD00BF00400008FFFF010880B400AFA2
:10042C00094A936943F008039361084A136823F45B
:10043C0040631360054A1368022161F309231360BA
:10044C0000BFBD4680BC704700100240000C01404C
:10045C0080B400AF0F4A136843F48033136000BFBD
:10046C000C4B1B68C3F34043DBB2002BF8D0094A9A
:10047C005368012161F30103536000BF054B5B68B6
:10048C00C3F38103DBB2012BF8D100BF00BFBD4623
:10049C0080BC70470010024080B485B000AF78601B
:1004AC007B68002B01D101231DE0114BFB607B68A5
:1004BC005A08FB681A447B68B2FBF3F3BB60BB6859
:1004CC001B090C4AC3F30B0399B2936861F30F1326
:1004DC009360084ABB6803F00F03D9B2936861F3C9
:1004EC0003039360002318461437BD4680BC704745
:1004FC0000127A000038014080B582B000AF7860FD
:10050C00274A936923F480439361254A936943F402
:10051C0080439361224A936923F004039361204A38
:10052C00936943F0040393611E4A5368022161F3FB
:10053C00871353601B4A536843F030035360194AC6
:10054C005368012161F38B235360164A536823F4DB
:10055C0040735360144AD36823F40053D360124A97
:10056C00D36823F00803D3600F4AD36843F0080321
:10057C00D3600D4AD36823F00403D3600A4AD368CE
:10058C0043F00403D3607868FFF786FF064AD3680C
:10059C0043F40053D360002318460837BD4680BD92
:1005AC0000100240000801400038014080B483B0C4
:1005BC0000AF0346FB7100BF0A4B1B68C3F3C013AB
:1005CC00DBB2002BF8D0074AFB79C3F3080399B2CE
:1005DC00536861F308035360002318460C37BD467B
:1005EC0080BC70470038014080B483B000AF00BFBE
:1005FC00094B1B68C3F34013DBB2002BF8D0064B3E
:10060C005B68C3F308039BB2FB71FB7918460C378C
:10061C00BD4680BC704700BF0038014080B485B037
:10062C0000AF78607B68002B01D101231DE0114BDA
:10063C00FB607B685A08FB681A447B68B2FBF3F3D7
:10064C00BB60BB681B090C4AC3F30B0399B29368DC
:10065C0061F30F139360084ABB6803F00F03D9B220
:10066C00936861F303039360002318461437BD4667
:10067C0080BC704700127A000044004080B582B004
:10068C0000AF7860274AD36923F40033D361254A3D
:10069C00D36943F40033D361224A936923F00403F2
:1006AC009361204A936943F0040393611E4A1368D3
:1006BC00022161F38B2313601B4A136843F44073CC
:1006CC001360194A1368012161F38F331360164AC2
:1006DC00136823F440531360144AD36823F4005373
:1006EC00D360124AD36823F00803D3600F4AD3684F
:1006FC0043F00803D3600D4AD36823F00403D3609E
:10070C000A4AD36843F00403D3607868FFF786FF86
:10071C00064AD36843F40053D360002318460837C5
:10072C00BD4680BD0010024000080140004400405E
:10073C0080B584B000AF0B4B1B68FB600A4B1B6889
:10074C00BB600A4B074A9A60FB683B603B6883F3CB
:10075C00088800BFBB687B607B68984700BF103778
:10076C00BD4680BD004000080440000800ED00E0DC
:10077C0090B5C5B000AFFFF76BFEFFF74FFE4FF41F
:10078C00E130FFF7B9FE4FF4E130FFF777FFFFF7E9
:10079C002BFF034687F80E3197F80E31552B03D1FA
:1007AC00AA20FFF703FFF2E797F80E31012B05D1D2
:1007BC00FFF712FEAA20FFF7F9FEE8E797F80E31D3
:1007CC00022B51D10023C7F80831FFF70DFF034668
:1007DC001B06D7F808211343C7F80831FFF704FFAD
:1007EC0003461B04D7F808211343C7F80831FFF759
:1007FC00FBFE03461B02D7F808211343C7F8083148
:10080C00FFF7F2FE03461A46D7F808311343C7F830
:10081C000831FFF7E9FE034687F80731002387F814
:10082C000F310FE097F80F41FFF7DEFE03461A4633
:10083C0007F58873A3F586731A5597F80F310133B2
:10084C0087F80F3197F80F2197F807319A42E9D3BF
:10085C0097F807213B1D1946D7F80801FFF764FDEF
:10086C00AA20FFF7A3FE92E797F80E31032B8ED147
:10087C00AA20FFF79BFEFFF75BFF88E780B400AF71
:10088C0000BFFDE780B400AF00BFFDE780B400AF50
:10089C0000BFFDE780B400AF00BFFDE780B400AF40
:1008AC0000BFFDE780B400AF00BFBD4680BC704701
:1008BC0080B400AF00BFBD4680BC704780B400AFB1
:1008CC0000BFBD4680BC704780B500AF00F02EF86D
:1008DC0000BF80BD80B400AF00BFBD4680BC704778
:1008EC00FFF7F8FF0B480C490C4A002302E0D458E0
:1008FC00C4500433C4188C42F9D3094A094C002360
:10090C0001E013600432A242FBD300F021F8FFF7A0
:10091C002FFF70470000002004000020C4090008CD
:10092C000400002024000020FEE7000080B400AF8B
:10093C00054B1B781A46054B1B681344034A13607E
:10094C0000BFBD4680BC7047000000202000002086
:10095C0070B500260C4D0D4C641BA410A64209D199
:10096C0000F01AF800260A4D0A4C641BA410A6428B
:10097C0005D170BD55F8043B98470136EEE755F8A4
:10098C00043B98470136F2E7BC090008BC09000893
:10099C00BC090008C0090008F8B500BFF8BC08BCC9
:1009AC009E467047F8B500BFF8BC08BC9E46704721
:0409BC0031010008FD
:0409C0000D0100081D
:0409C400010000002E
:04000005080008EDFA
:00000001FF
