:020000040800F2
:1000000000500020B10A00084D0A0008550A0008F7
:100010005D0A0008650A00086D0A0008000000007B
:10002000000000000000000000000000750A000849
:10003000810A0008000000008D0A0008990A0008E3
:10004000F90A0008F90A0008F90A0008F90A000884
:10005000F90A0008F90A0008F90A0008F90A000874
:10006000F90A0008F90A0008F90A0008F90A000864
:10007000F90A0008F90A0008F90A0008F90A000854
:10008000F90A0008F90A0008F90A0008F90A000844
:10009000F90A0008F90A0008F90A0008F90A000834
:1000A000F90A0008F90A0008F90A0008F90A000824
:1000B000F90A0008F90A0008F90A0008F90A000814
:1000C000F90A0008F90A0008F90A0008F90A000804
:1000D000F90A0008F90A0008F90A0008F90A0008F4
:1000E000F90A0008F90A0008F90A000800000000EF
:1000F0000000000000000000000000000000000000
:0C01000000000000000000005FF808F1A3
:10010C0010B5054C237833B9044B13B10448AFF345
:10011C0000800123237010BD0C00002000000000A3
:10012C00D00D000808B5034B1BB103490348AFF3CE
:10013C00008008BD0000000010000020D00D000859
:10014C0080B400AF074B1B6803F08003002B05D075
:10015C00054B064A1A60044B054A1A6000BFBD469F
:10016C0080BC7047102002400420024023016745E8
:10017C00AB89EFCD80B400AF044B1B68034A43F04E
:10018C008003136000BFBD4680BC70471020024046
:10019C0080B483B000AF1B4B7B6000BF1A4B1B6855
:1001AC0003F00103002B05D07B68013B7B607B686F
:1001BC00002BF3D17B68002B01D102231CE0124BE6
:1001CC001B6803F01003002B01D0062314E00E4B28
:1001DC001B6803F00403002B01D005230CE00A4B31
:1001EC001B6803F02003002B05D0074B1B68064A45
:1001FC0043F020031360002318460C37BD4680BC27
:10020C00704700BFA08601000C20024080B584B06E
:10021C0000AF78607B681C4A934208D37B681B4A0A
:10022C00934204D87B68C3F30903002B01D003234A
:10023C0026E0FFF785FFFFF7ABFF0346FB73FB7B65
:10024C00002B01D0FB7B1BE0114B1B68104A43F0C9
:10025C00020313600F4A7B6813600D4B1B680C4A3A
:10026C0043F040031360FFF793FF0346FB73084B07
:10027C001B68074A23F002031360FFF77BFFFB7B2D
:10028C0018461037BD4680BD00400008FFFF01082E
:10029C00102002401420024080B584B000AF78607A
:1002AC000B467B807B6803F00103002B07D17B6836
:1002BC001A4A934203D37B68194A934201D9042307
:1002CC0028E0FFF73DFFFFF763FF0346FB73FB7B63
:1002DC00002B01D0FB7B1DE0124B1B68114A43F035
:1002EC00010313607B687A881A80FFF751FF03467D
:1002FC00FB730C4B1B680B4A23F001031360FFF7D5
:10030C0039FF7B681B889BB27A889A4201D00723FD
:10031C0000E0FB7B18461037BD4680BD004000084E
:10032C00FFFF01081020024080B586B000AFF860D6
:10033C00B9607A60FB6803F00103002B09D1FB68FC
:10034C00234A934205D3FA687B681344214A9342AB
:10035C0001D9042338E000237B6130E07B69013351
:10036C007A689A4210D9BA687B6913441B781AB21E
:10037C007B690133B9680B441B781BB21B021BB29F
:10038C0013431BB27B8208E0BA687B6913441B7869
:10039C001BB263F0FF031BB27B82FA687B691344C8
:1003AC007A8A11461846FFF777FF03467B747B7CED
:1003BC00002B01D07B7C07E07B6902337B617A697F
:1003CC007B689A42CAD3002318461837BD4680BDB5
:1003DC00004000080000020880B582B000AF0D4B51
:1003EC007B600DE07868FFF711FF0346FB70FB782C
:1003FC00002B01D0FB7808E07B6803F580637B6001
:10040C007B68054A9342EDD9002318460837BD4650
:10041C0080BD00BF00400008FFFF010880B400AFA2
:10042C00094A936943F008039361084A136823F45B
:10043C0040631360054A1368022161F309231360BA
:10044C0000BFBD4680BC704700100240000C01404C
:10045C0080B400AF0F4A136843F48033136000BFBD
:10046C000C4B1B68C3F34043DBB2002BF8D0094A9A
:10047C005368012161F30103536000BF054B5B68B6
:10048C00C3F38103DBB2012BF8D100BF00BFBD4623
:10049C0080BC70470010024080B485B000AF78601B
:1004AC007B68002B01D101231DE0114BFB607B68A5
:1004BC005A08FB681A447B68B2FBF3F3BB60BB6859
:1004CC001B090C4AC3F30B0399B2936861F30F1326
:1004DC009360084ABB6803F00F03D9B2936861F3C9
:1004EC0003039360002318461437BD4680BC704745
:1004FC0000127A000038014080B582B000AF7860FD
:10050C00274A936923F480439361254A936943F402
:10051C0080439361224A936923F004039361204A38
:10052C00936943F0040393611E4A5368022161F3FB
:10053C00871353601B4A536843F030035360194AC6
:10054C005368012161F38B235360164A536823F4DB
:10055C0040735360144AD36823F40053D360124A97
:10056C00D36823F00803D3600F4AD36843F0080321
:10057C00D3600D4AD36823F00403D3600A4AD368CE
:10058C0043F00403D3607868FFF786FF064AD3680C
:10059C0043F40053D360002318460837BD4680BD92
:1005AC0000100240000801400038014080B483B0C4
:1005BC0000AF0346FB7100BF0A4B1B68C3F3C013AB
:1005CC00DBB2002BF8D0074AFB79C3F3080399B2CE
:1005DC00536861F308035360002318460C37BD467B
:1005EC0080BC70470038014080B483B000AF00BFBE
:1005FC00094B1B68C3F34013DBB2002BF8D0064B3E
:10060C005B68C3F308039BB2FB71FB7918460C378C
:10061C00BD4680BC704700BF0038014080B485B037
:10062C0000AF78607B68002B01D101231DE0114BDA
:10063C00FB607B685A08FB681A447B68B2FBF3F3D7
:10064C00BB60BB681B090C4AC3F30B0399B29368DC
:10065C0061F30F139360084ABB6803F00F03D9B220
:10066C00936861F303039360002318461437BD4667
:10067C0080BC704700127A000044004080B582B004
:10068C0000AF7860274AD36923F40033D361254A3D
:10069C00D36943F40033D361224A936923F00403F2
:1006AC009361204A936943F0040393611E4A1368D3
:1006BC00022161F38B2313601B4A136843F44073CC
:1006CC001360194A1368012161F38F331360164AC2
:1006DC00136823F440531360144AD36823F4005373
:1006EC00D360124AD36823F00803D3600F4AD3684F
:1006FC0043F00803D3600D4AD36823F00403D3609E
:10070C000A4AD36843F00403D3607868FFF786FF86
:10071C00064AD36843F40053D360002318460837C5
:10072C00BD4680BD0010024000080140004400405E
:10073C0080B483B000AF0346FB7100BF0A4B1B684B
:10074C00C3F3C013DBB2002BF8D0074AFB79C3F319
:10075C00080399B2536861F30803536000231846E9
:10076C000C37BD4680BC70470044004080B584B057
:10077C0000AF0B4B1B68FB600A4B1B68BB600A4B42
:10078C00074A9A60FB683B603B6883F3088800BFAC
:10079C00BB687B607B68984700BF1037BD4680BD47
:1007AC00004000080440000800ED00E090B5C7B020
:1007BC0000AFFFF74DFE00F09BF900F0F1F9C7F820
:1007CC000C01FFF72BFE4FF4E130FFF795FE4FF4D1
:1007DC00E130FFF753FF0023C7F81431EEE07E4BF6
:1007EC001B68C3F34013DBB2002B00F0E780FFF76C
:1007FC00FBFE034687F80B3197F80B31552B03D1D1
:10080C00AA20FFF7D3FED9E097F80B31012B05D1C5
:10081C00FFF7E2FDAA20FFF7C9FECFE097F80B31F6
:10082C00022B40F08C800023C7F80431FFF7DCFE6C
:10083C0003461B06D7F804211343C7F80431FFF70E
:10084C00D3FE03461B04D7F804211343C7F8043125
:10085C00FFF7CAFE03461B02D7F804211343C7F85F
:10086C000431FFF7C1FE03461A46D7F8043113438F
:10087C00C7F80431FFF7B8FE034687F803310023AD
:10088C0087F81331D7F80431DAB2D7F804311B0AE0
:10089C00DBB21344DAB297F80331134487F81331FF
:1008AC00002387F812311BE097F81241FFF79CFEEA
:1008BC0003461A4607F58C73A3F58C731A5597F8F3
:1008CC00123107F58C72A2F58C72D25C97F8133149
:1008DC00134487F8133197F81231013387F812312A
:1008EC0097F8122197F803319A42DDD397F8133118
:1008FC005B4287F8133197F813311846FFF718FF4E
:10090C00FFF772FE03461A4697F8133193420BD148
:10091C0097F803213B461946D7F80401FFF704FD6D
:10092C00AA20FFF743FE02E0FF20FFF73FFE97F8F7
:10093C001331D7F814211344C7F814313EE097F85B
:10094C000B31032B3AD1FFF74FFE03461C06FFF782
:10095C004BFE03461B041C43FFF746FE03461B02DB
:10096C001C43FFF741FE034644EA0302D7F8143157
:10097C009A4220D1AA20FFF719FED7F814311B0E8A
:10098C00DBB21846FFF7D4FED7F814311B0CDBB2E0
:10099C001846FFF7CDFED7F814311B0ADBB2184608
:1009AC00FFF7C6FED7F81431DBB21846FFF7C0FECE
:1009BC00FFF7DCFE02E0FF20FFF7F8FD00F0F0F897
:1009CC000246D7F80C31D31A42F2107293427FF6DA
:1009DC0006AFFFF7CBFEF1E70038014080B485B0DD
:1009EC0000AF154B9B69144A43F001039361124B02
:1009FC009B6903F00103BB60BB680F4BDB690E4ABC
:100A0C0043F08053D3610C4BDB6903F080537B6064
:100A1C007B680A4B5B68FB60FB6823F0E063FB6060
:100A2C00FB6843F08063FB60044AFB68536000BFC3
:100A3C001437BD4680BC70470010024000000140D6
:100A4C0080B400AF00BFFDE780B400AF00BFFDE78E
:100A5C0080B400AF00BFFDE780B400AF00BFFDE77E
:100A6C0080B400AF00BFFDE780B400AF00BFBD464F
:100A7C0080BC704780B400AF00BFBD4680BC7047DF
:100A8C0080B400AF00BFBD4680BC704780B500AFDE
:100A9C0000F074F800BF80BD80B400AF00BFBD464D
:100AAC0080BC7047FFF7F8FF0B480C490C4A002339
:100ABC0002E0D458C4500433C4188C42F9D3094A08
:100ACC00094C002301E013600432A242FBD300F076
:100ADC0055F9FFF76BFE7047000000200C0000205A
:100AEC00F00D00080C0000202C000020FEE7000098
:100AFC0080B500AF084B1B68074A43F01003136026
:100B0C00032000F007F90F2000F008F8FFF766FF4C
:100B1C000023184680BD00BF0020024080B582B083
:100B2C0000AF7860124B1A68124B1B7819464FF4C1
:100B3C007A73B3FBF1F3B2FBF3F3184600F011F93F
:100B4C000346002B01D001230EE07B680F2B0AD843
:100B5C00002279684FF0FF3000F0E7F8064A7B6816
:100B6C001360002300E0012318460837BD4680BD02
:100B7C0000000020080000200400002080B400AF1A
:100B8C00054B1B781A46054B1B681344034A13602C
:100B9C0000BFBD4680BC7047080000202800002024
:100BAC0080B400AF024B1B681846BD4680BC704732
:100BBC002800002080B485B000AF78607B6803F01B
:100BCC000703FB600C4BDB68BB60BA684FF6FF0396
:100BDC001340BB60FB681A02BB68134343F0BF634E
:100BEC0043F40033BB60044ABB68D36000BF1437C6
:100BFC00BD4680BC704700BF00ED00E080B400AF84
:100C0C00044BDB681B0A03F007031846BD4680BC87
:100C1C00704700BF00ED00E080B483B000AF034626
:100C2C003960FB7197F90730002B0ADB3B68DAB2AD
:100C3C000C4997F907301201D2B20B4483F8002308
:100C4C000AE03B68DAB20849FB7903F00F03043B76
:100C5C001201D2B20B441A7600BF0C37BD4680BCD1
:100C6C00704700BF00E100E000ED00E080B489B007
:100C7C0000AFF860B9607A60FB6803F00703FB61B2
:100C8C00FB69C3F10703042B28BF0423BB61FB6979
:100C9C000433062B02D9FB69033B00E000237B6184
:100CAC004FF0FF32BB6902FA03F3DA43BB681A4018
:100CBC007B699A404FF0FF317B6901FA03F3D9430A
:100CCC007B680B40134318462437BD4680BC7047E5
:100CDC0080B582B000AF78607B68013BB3F1807F58
:100CEC0001D301230FE00A4A7B68013B53600F21BB
:100CFC004FF0FF30FFF790FF054B00229A60044B3A
:100D0C0007221A60002318460837BD4680BD00BF75
:100D1C0010E000E080B582B000AF78607868FFF733
:100D2C0049FF00BF0837BD4680BD80B586B000AF17
:100D3C000346B9607A60FB7300237B61FFF75EFFAB
:100D4C0078617A68B9687869FFF790FF024697F97D
:100D5C000F3011461846FFF75FFF00BF1837BD462E
:100D6C0080BD80B582B000AF78607868FFF7B0FFC7
:100D7C00034618460837BD4680BD000070B50026F6
:100D8C000C4D0D4C641BA410A64209D100F01AF8AE
:100D9C0000260A4D0A4C641BA410A64205D170BD56
:100DAC0055F8043B98470136EEE755F8043B984755
:100DBC000136F2E7E80D0008E80D0008E80D000820
:100DCC00EC0D0008F8B500BFF8BC08BC9E46704797
:0C0DDC00F8B500BFF8BC08BC9E4670478C
:040DE80031010008CD
:040DEC000D010008ED
:0C0DF00000127A0010000000010000005A
:0400000508000AB134
:00000001FF
