:020000040800F2
:1000000000500020A9030008450300084D03000824
:10001000550300085D0300086503000800000000A8
:100020000000000000000000000000006D03000858
:100030007903000800000000850300089103000810
:10004000F1030008F1030008F1030008F1030008C0
:10005000F1030008F1030008F1030008F1030008B0
:10006000F1030008F1030008F1030008F1030008A0
:10007000F1030008F1030008F1030008F103000890
:10008000F1030008F1030008F1030008F103000880
:10009000F1030008F1030008F1030008F103000870
:1000A000F1030008F1030008F1030008F103000860
:1000B000F1030008F1030008F1030008F103000850
:1000C000F1030008F1030008F1030008F103000840
:1000D000F1030008F1030008F1030008F103000830
:1000E000F1030008F1030008F1030008000000001C
:1000F0000000000000000000000000000000000000
:0C01000000000000000000005FF808F1A3
:10010C0010B5054C237833B9044B13B10448AFF345
:10011C0000800123237010BD0400002000000000AB
:10012C006004000808B5034B1BB103490348AFF347
:10013C00008008BD000000000800002060040008DA
:10014C0080B400AF0A4B1B68094A43F008031360E4
:10015C00084B1B68074A23F470631360054B1B683C
:10016C00044A43F40073136000BFBD4680BC704763
:10017C0018100240000C014080B400AF044B1B6807
:10018C00034A83F00403136000BFBD4680BC704774
:10019C000C0C014080B400AF0F4A136843F4803359
:1001AC00136000BF0C4B1B68C3F34043DBB2002B46
:1001BC00F8D0094A5368012161F30103536000BF71
:1001CC00054B5B68C3F38103DBB2012BF8D100BF95
:1001DC0000BFBD4680BC70470010024080B485B0A3
:1001EC0000AF78607B68002B01D101231DE0114B1F
:1001FC00FB607B685A08FB681A447B68B2FBF3F31C
:10020C00BB60BB681B090C4AC3F30B0399B2936820
:10021C0061F30F139360084ABB6803F00F03D9B264
:10022C00936861F303039360002318461437BD46AB
:10023C0080BC704700127A000038014080B582B053
:10024C0000AF78601C4A936923F4804393611A4A87
:10025C00936943F480439361174A936923F0040331
:10026C009361154A936943F004039361134AD3686D
:10027C0023F40053D360114AD36823F00803D360EE
:10028C000E4AD36843F00803D3600C4AD36823F0BA
:10029C000403D360094AD36843F00403D36078683D
:1002AC00FFF79CFF054AD36843F40053D360002347
:1002BC0018460837BD4680BD00100240003801408A
:1002CC0080B483B000AF0346FB7100BF0A4B1B68C0
:1002DC00C3F3C013DBB2002BF8D0074AFB79C3F38E
:1002EC00080399B2536861F308035360002318465E
:1002FC000C37BD4680BC70470038014080B582B0D9
:10030C0000AFFFF747FFFFF71BFF4FF43450FFF729
:10031C0095FF4120FFF7D4FFFFF72EFF00237B60F2
:10032C0002E07B6801337B607B68024A9342F8DD14
:10033C00EFE700BF9F86010080B400AF00BFFDE770
:10034C0080B400AF00BFFDE780B400AF00BFFDE795
:10035C0080B400AF00BFFDE780B400AF00BFFDE785
:10036C0080B400AF00BFBD4680BC704780B400AF06
:10037C0000BFBD4680BC704780B400AF00BFBD4617
:10038C0080BC704780B500AF00F02EF800BF80BD78
:10039C0080B400AF00BFBD4680BC7047FFF7F8FFCC
:1003AC000B480C490C4A002302E0D458C4500433C7
:1003BC00C4188C42F9D3094A094C002301E013609C
:1003CC000432A242FBD300F021F8FFF797FF7047ED
:1003DC00000000200400002080040008040000201D
:1003EC0024000020FEE7000080B400AF054B1B7812
:1003FC001A46054B1B681344034A136000BFBD46E5
:10040C0080BC7047000000202000002070B5002642
:10041C000C4D0D4C641BA410A64209D100F01AF827
:10042C0000260A4D0A4C641BA410A64205D170BDCF
:10043C0055F8043B98470136EEE755F8043B9847CE
:10044C000136F2E778040008780400087804000804
:10045C007C040008F8B500BFF8BC08BC9E46704789
:0C046C00F8B500BFF8BC08BC9E46704705
:040478003101000846
:04047C000D01000866
:040480000100000077
:04000005080003A943
:00000001FF
