:020000040800F2
:1000000000500020390A0008C5090008CD09000881
:10001000D5090008DD090008E50900080000000016
:10002000000000000000000000000000ED090008D2
:10003000F909000800000000050A0008110A00087C
:10004000810A0008810A0008810A0008810A000864
:10005000810A0008810A0008810A0008810A000854
:10006000810A0008810A0008810A0008810A000844
:10007000810A0008810A0008810A0008810A000834
:10008000810A0008810A0008810A0008810A000824
:10009000810A0008810A0008810A0008810A000814
:1000A000810A0008810A0008810A0008810A000804
:1000B000810A0008810A0008810A0008810A0008F4
:1000C000810A0008810A0008810A0008810A0008E4
:1000D000810A0008810A0008810A0008810A0008D4
:1000E000810A0008810A0008810A00080000000057
:1000F0000000000000000000000000000000000000
:0C01000000000000000000005FF808F1A3
:10010C0010B5054C237833B9044B13B10448AFF345
:10011C0000800123237010BD10000020000000009F
:10012C00F00A000808B5034B1BB103490348AFF3B1
:10013C00008008BD0000000014000020F00A000838
:10014C0080B400AF074B1B6803F08003002B05D075
:10015C00054B064A1A60044B054A1A6000BFBD469F
:10016C0080BC7047102002400420024023016745E8
:10017C00AB89EFCD80B400AF044B1B68034A43F04E
:10018C008003136000BFBD4680BC70471020024046
:10019C0080B483B000AF1B4B7B6000BF1A4B1B6855
:1001AC0003F00103002B05D07B68013B7B607B686F
:1001BC00002BF3D17B68002B01D102231CE0124BE6
:1001CC001B6803F01003002B01D0062314E00E4B28
:1001DC001B6803F00403002B01D005230CE00A4B31
:1001EC001B6803F02003002B05D0074B1B68064A45
:1001FC0043F020031360002318460C37BD4680BC27
:10020C00704700BFA08601000C20024080B584B06E
:10021C0000AF78607B681C4A934208D37B681B4A0A
:10022C00934204D87B68C3F30903002B01D003234A
:10023C0026E0FFF785FFFFF7ABFF0346FB73FB7B65
:10024C00002B01D0FB7B1BE0114B1B68104A43F0C9
:10025C00020313600F4A7B6813600D4B1B680C4A3A
:10026C0043F040031360FFF793FF0346FB73084B07
:10027C001B68074A23F002031360FFF77BFFFB7B2D
:10028C0018461037BD4680BD00400008FFFF01082E
:10029C00102002401420024080B584B000AF78607A
:1002AC000B467B807B6803F00103002B07D17B6836
:1002BC001A4A934203D37B68194A934201D9042307
:1002CC0028E0FFF73DFFFFF763FF0346FB73FB7B63
:1002DC00002B01D0FB7B1DE0124B1B68114A43F035
:1002EC00010313607B687A881A80FFF751FF03467D
:1002FC00FB730C4B1B680B4A23F001031360FFF7D5
:10030C0039FF7B681B889BB27A889A4201D00723FD
:10031C0000E0FB7B18461037BD4680BD004000084E
:10032C00FFFF01081020024080B586B000AFF860D6
:10033C00B9607A60FB6803F00103002B09D1FB68FC
:10034C00234A934205D3FA687B681344214A9342AB
:10035C0001D9042338E000237B6130E07B69013351
:10036C007A689A4210D9BA687B6913441B781AB21E
:10037C007B690133B9680B441B781BB21B021BB29F
:10038C0013431BB27B8208E0BA687B6913441B7869
:10039C001BB263F0FF031BB27B82FA687B691344C8
:1003AC007A8A11461846FFF777FF03467B747B7CED
:1003BC00002B01D07B7C07E07B6902337B617A697F
:1003CC007B689A42CAD3002318461837BD4680BDB5
:1003DC00004000080000020880B582B000AF0D4B51
:1003EC007B600DE07868FFF711FF0346FB70FB782C
:1003FC00002B01D0FB7808E07B6803F580637B6001
:10040C007B68054A9342EDD9002318460837BD4650
:10041C0080BD00BF00400008FFFF010880B400AFA2
:10042C00094A936943F008039361084A136823F45B
:10043C0040631360054A1368022161F309231360BA
:10044C0000BFBD4680BC704700100240000C01404C
:10045C0080B400AF044B1B68034A83F004031360A1
:10046C0000BFBD4680BC70470C0C014080B400AF8F
:10047C000F4A136843F48033136000BF0C4B1B68A6
:10048C00C3F34043DBB2002BF8D0094A5368012177
:10049C0061F30103536000BF054B5B68C3F3810339
:1004AC00DBB2012BF8D100BF00BFBD4680BC70474A
:1004BC000010024080B500AFFFF7D8FF1D4B1B6842
:1004CC001C4A23F0070313601A4B1B68194A43F0AC
:1004DC0002031360174B1B68164A43F0100313609A
:1004EC00154A536843F480335360134A5368072109
:1004FC0061F395435360104A136843F080731360A3
:10050C0000BF0D4B1B68C3F34063DBB2002BF8D06C
:10051C00094A5368022161F30103536000BF064B83
:10052C005B68C3F38103DBB2022BF8D100BF00BFC1
:10053C0080BD00BF002002400010024080B483B098
:10054C0000AF78600D4A7B68013B53600B4B002277
:10055C009A600A4A136843F004031360074A13684D
:10056C0043F002031360054A136843F00103136060
:10057C0000BF0C37BD4680BC704700BF10E000E0E8
:10058C0080B400AF034B00221A6000BFBD4680BC94
:10059C00704700BF2C00002080B400AF024B1B68DA
:1005AC001846BD4680BC70472C00002080B485B036
:1005BC0000AF78607B68002B01D101231DE0114B4B
:1005CC00FB607B685A08FB681A447B68B2FBF3F348
:1005DC00BB60BB681B090C4AC3F30B0399B293684D
:1005EC0061F30F139360084ABB6803F00F03D9B291
:1005FC00936861F303039360002318461437BD46D8
:10060C0080BC704700A24A040038014080B582B01B
:10061C0000AF7860274A936923F480439361254A9D
:10062C00936943F480439361224A936923F0040352
:10063C009361204A936943F0040393611E4A536803
:10064C00022161F3871353601B4A536843F0300354
:10065C005360194A5368012161F38B235360164A86
:10066C00536823F440735360144AD36823F4005343
:10067C00D360124AD36823F00803D3600F4AD368BF
:10068C0043F00803D3600D4AD36823F00403D3600E
:10069C000A4AD36843F00403D3607868FFF786FFF7
:1006AC00064AD36843F40053D36000231846083736
:1006BC00BD4680BD001002400008014000380140DA
:1006CC0080B483B000AF0346FB7100BF0A4B1B68BC
:1006DC00C3F3C013DBB2002BF8D0074AFB79C3F38A
:1006EC00080399B2536861F308035360002318465A
:1006FC000C37BD4680BC70470038014080B483B0D5
:10070C0000AF00BF094B1B68C3F34013DBB2002BD7
:10071C00F8D0064B5B68C3F308039BB2FB71FB7903
:10072C0018460C37BD4680BC704700BF00380140EE
:10073C0080B584B000AF124B1B68FB60114B1B687B
:10074C00BB60114B1A7A00221A725A7A002242F0BC
:10075C0040025A729A7A00229A72DA7A002242F095
:10076C000802DA72FB683B603B6883F3088800BFC1
:10077C00BB687B607B68984700BF1037BD4680BD67
:10078C00004000080440000800ED00E090B587B080
:10079C0000AFFFF78FFE814B1B68814898477F4B5A
:1007AC005B6898477F4B00221A60FFF737FE4FF4C7
:1007BC00E130FFF72BFFFFF74BFEE2E0FFF748FEBF
:1007CC00794B1B68C3F34013DBB2002B00F0D980CC
:1007DC00FFF794FF0346FB74FB7C552B03D1AA2037
:1007EC00FFF76EFFCDE0FB7C012B09D16F4B002294
:1007FC001A806F4B00221A60AA20FFF761FFC0E03D
:10080C00FB7C022B75D1694B1B8840F25932934209
:10081C0003D9FF20FFF754FFB3E0644B1B881A4643
:10082C00162302FB03F3634A13447B60FFF766FF56
:10083C0003461C02FFF762FF034644EA03027B688F
:10084C00D3F812301A437B68C3F81220FFF756FF17
:10085C0003461A467B681A707B681A787B68D3F853
:10086C0012301B0ADBB21344DAB27B68D3F81230B5
:10087C00DBB21344FB750023BB7511E0BC7DFFF7A5
:10088C003DFF03461A467B6823445A70BB7D7A6849
:10089C0013445A78FB7D1344FB75BB7D0133BB7548
:1008AC007B681B78BA7D9A42E8D3FB7D5B42FB7573
:1008BC00FFF724FF03461A467B685A747B685B7CFF
:1008CC00FA7D9A420FD1FA7D394B1B681344384A92
:1008DC001360364B1B8801339AB2344B1A80AA2012
:1008EC00FFF7EEFE4DE0FF20FFF7EAFEFFF720FFDB
:1008FC0047E0FB7C032B44D1FFF700FF03461C06AB
:10090C00FFF7FCFE03461B041C43FFF7F7FE0346F0
:10091C001B021C43FFF7F2FE03462343244A1268D2
:10092C00934227D1AA20FFF7CBFEFFF755FD0023FA
:10093C00BB8217E0BB8A162202FB03F31D4A134449
:10094C00FB60FB68D3F8123003F10063BB60FB68FB
:10095C00591CFB681B781A46B868FFF7E5FCBB8A84
:10096C000133BB82114B1B88BA8A9A42E2D3FFF740
:10097C00DFFE06E0FF20FFF7A3FEFFF769FDFFF7A0
:10098C00D7FE064B9B689847034642F20F72934280
:10099C007FF614AFFFF7CCFEF3E700BF000000209A
:1009AC0040190100F44900200038014030000020BB
:1009BC00F04900203400002080B400AF00BFFDE7F8
:1009CC0080B400AF00BFFDE780B400AF00BFFDE70F
:1009DC0080B400AF00BFFDE780B400AF00BFFDE7FF
:1009EC0080B400AF00BFBD4680BC704780B400AF80
:1009FC0000BFBD4680BC704780B400AF00BFBD4691
:100A0C0080BC704780B500AF044B1B680133034AB0
:100A1C00136000F031F800BF80BD00BF2C00002037
:100A2C0080B400AF00BFBD4680BC7047FFF7F8FF35
:100A3C000B480C490C4A002302E0D458C450043330
:100A4C00C4188C42F9D3094A094C002301E0136005
:100A5C000432A242FBD300F021F8FFF797FE704757
:100A6C000000002010000020100B000810000020D7
:100A7C00FC490020FEE7000080B400AF054B1B785A
:100A8C001A46054B1B681344034A136000BFBD464E
:100A9C0080BC70470C000020F849002070B500267F
:100AAC000C4D0D4C641BA410A64209D100F01AF891
:100ABC0000260A4D0A4C641BA410A64205D170BD39
:100ACC0055F8043B98470136EEE755F8043B984738
:100ADC000136F2E7080B0008080B0008080B0008A9
:100AEC000C0B0008F8B500BFF8BC08BC9E4670475C
:0C0AFC00F8B500BFF8BC08BC9E4670476F
:040B080031010008AF
:040B0C000D010008CF
:100B1000490500088D050008A50500080100000032
:0400000508000A39AC
:00000001FF
